:020000040800F2
:100000000000022031600008592800085B28000821
:100010005D2800085F280008612800080000000033
:10002000000000000000000000000000B1520008C5
:10003000632800080000000051530008B553000871
:10004000816000088160000881600008816000080C
:1000500081600008816000088160000881600008FC
:1000600081600008816000088160000881600008EC
:1000700081600008816000088160000881600008DC
:1000800081600008816000088160000881600008CC
:1000900081600008816000088160000881600008BC
:1000A000652800087D28000881600008816000083C
:1000B00095280008A5280008B528000881600008D8
:1000C000816000088160000881600008816000088C
:1000D000816000088160000881600008816000087C
:1000E000816000088160000881600008816000086C
:1000F000816000088160000881600008816000085C
:10010000816000088160000881600008816000084B
:100110008160000881600008C5280008816000082F
:10012000816000088160000881600008816000082B
:10013000816000088160000881600008816000081B
:10014000816000088160000881600008816000080B
:1001500081600008816000088160000881600008FB
:1001600081600008816000088160000881600008EB
:1001700081600008D5280008E52800088160000893
:10018000F52800088160000881600008816000088F
:1001900081600008000000008160000881600008A4
:1001A00081600008816000088160000881600008AB
:1001B000816000088160000881600008816000089B
:1001C000816000088160000881600008816000088B
:0801D000816000088160000855
:1001E00001F0FF01102A2BDB10F0070F08D010F8E8
:1001F000013B013A8B422DD010F0070F42B3F6D1EC
:10020000F0B441EA012141EA014122F007047FF004
:1002100000070023F0E80256083C85EA010586EA5B
:10022000010685FA47F5A3FA87F586FA47F6A5FA97
:1002300087F68EB9EED1F0BC01F0FF0102F00702A3
:1002400032B110F8013B013A83EA010313B1F8D14E
:100250000020704701387047002D06BF354603382F
:10026000073815F0010F07D1013015F4807F02BF68
:10027000013015F4C03F0130F0BC0138704700BFB9
:1002800081F0004102E000BF83F0004330B54FEA47
:1002900041044FEA430594EA050F08BF90EA020FB4
:1002A0001FBF54EA000C55EA020C7FEA645C7FEA47
:1002B000655C00F0E2804FEA5454D4EB5555B8BF6A
:1002C0006D420CDD2C4480EA020281EA030382EADB
:1002D000000083EA010180EA020281EA0303362D6D
:1002E00088BF30BD11F0004F4FEA01314FF4801C40
:1002F0004CEA113102D0404261EB410113F0004F52
:100300004FEA03334CEA133302D0524263EB430308
:1003100094EA050F00F0A780A4F10104D5F1200EA6
:100320000DDB02FA0EFC22FA05F2801841F1000101
:1003300003FA0EF2801843FA05F359410EE0A5F1D5
:1003400020050EF1200E012A03FA0EFC28BF4CF006
:10035000020C43FA05F3C01851EBE37101F00045BC
:1003600007D54FF0000EDCF1000C7EEB00006EEBC9
:100370000101B1F5801F1BD3B1F5001F0CD3490853
:100380005FEA30004FEA3C0C04F101044FEA4452AA
:1003900012F5800F80F09A80BCF1004F08BF5FEA31
:1003A000500C50F1000041EB045141EA050130BD11
:1003B0005FEA4C0C404141EB0101013C28BFB1F523
:1003C000801FE9D291F0000F04BF01460020B1FA6E
:1003D00081F308BF2033A3F10B03B3F120020CDA41
:1003E0000C3208DD02F1140CC2F10C0201FA0CF01F
:1003F00021FA02F10CE002F11402D8BFC2F1200C84
:1004000001FA02F120FA0CFCDCBF41EA0C01904039
:10041000E41AA2BF01EB0451294330BD6FEA040482
:100420001F3C1CDA0C340EDC04F11404C4F120026D
:1004300020FA04F001FA02F340EA030021FA04F37F
:1004400045EA030130BDC4F10C04C4F1200220FAD6
:1004500002F001FA04F340EA0300294630BD21FA14
:1004600004F0294630BD94F0000F83F4801306BFDA
:1004700081F480110134013D4EE77FEA645C18BFCE
:100480007FEA655C29D094EA050F08BF90EA020F65
:1004900005D054EA000C04BF1946104630BD91EA5D
:1004A000030F1EBF0021002030BD5FEA545C05D160
:1004B0004000494128BF41F0004130BD14F580049F
:1004C0003CBF01F5801130BD01F0004545F0FE4113
:1004D00041F470014FF0000030BD7FEA645C1ABF48
:1004E000194610467FEA655C1CBF0B46024650EA7F
:1004F000013406BF52EA033591EA030F41F40021AB
:1005000030BD00BF90F0000F04BF0021704730B530
:100510004FF4806404F132044FF000054FF0000105
:1005200050E700BF90F0000F04BF0021704730B5C6
:100530004FF4806404F1320410F0004548BF40429B
:100540004FF000013EE700BF42004FEAE2014FEAF0
:1005500031014FEA02701FBF12F07F4393F07F4FCB
:1005600081F06051704732F07F4208BF704793F0CE
:100570007F4F04BF41F40021704730B54FF46074E1
:1005800001F0004521F000411CE700BF50EA0102E4
:1005900008BF704730B54FF000050AE050EA01028D
:1005A00008BF704730B511F0004502D5404261EBFD
:1005B00041014FF4806404F132045FEA915C3FF43E
:1005C000D8AE4FF003025FEADC0C18BF03325FEADB
:1005D000DC0C18BF033202EBDC02C2F1200300FA8C
:1005E00003FC20FA02F001FA03FE40EA0E0021FAB1
:1005F00002F11444BDE600BF70B54FF0FF0C4CF49F
:10060000E06C1CEA11541DBF1CEA135594EA0C0F50
:1006100095EA0C0F00F0DEF82C4481EA030621EA8B
:100620004C5123EA4C5350EA013518BF52EA0335C6
:1006300041F4801143F4801338D0A0FB02CE4FF078
:100640000005E1FB02E506F00042E0FB03E54FF0A8
:100650000006E1FB03569CF0000F18BF4EF0010EA0
:10066000A4F1FF04B6F5007F64F5407404D25FEA9C
:100670004E0E6D4146EB060642EAC62141EA55514F
:100680004FEAC52040EA5E504FEACE2EB4F1FD0C91
:1006900088BFBCF5E06F1ED8BEF1004F08BF5FEA0F
:1006A000500E50F1000041EB045170BD06F00046C1
:1006B00046EA010140EA020081EA0301B4EB5C046E
:1006C000C2BFD4EB0C0541EA045170BD41F4801166
:1006D0004FF0000E013C00F3AB8014F1360FDEBF8B
:1006E000002001F0004170BDC4F10004203C35DA67
:1006F0000C341BDC04F11404C4F1200500FA05F3EA
:1007000020FA04F001FA05F240EA020001F000428A
:1007100021F0004110EBD37021FA04F642EB060100
:100720005EEA430E08BF20EAD37070BDC4F10C042A
:10073000C4F1200500FA04F320FA05F001FA04F2EE
:1007400040EA020001F0004110EBD37041F10001DA
:100750005EEA430E08BF20EAD37070BDC4F12005E5
:1007600000FA05F24EEA020E20FA04F301FA05F24D
:1007700043EA020321FA04F001F0004121FA04F2F5
:1007800020EA020000EBD3705EEA430E08BF20EAC5
:10079000D37070BD94F0000F0FD101F000464000FF
:1007A00041EB010111F4801F08BF013CF7D041EA81
:1007B000060195F0000F18BF704703F00046520085
:1007C00043EB030313F4801F08BF013DF7D043EA56
:1007D0000603704794EA0C0F0CEA135518BF95EA0C
:1007E0000C0F0CD050EA410618BF52EA4306D1D193
:1007F00081EA030101F000414FF0000070BD50EAB2
:10080000410606BF1046194652EA430619D094EA3B
:100810000C0F02D150EA013613D195EA0C0F05D125
:1008200052EA03361CBF104619460AD181EA030179
:1008300001F0004141F0FE4141F470014FF0000031
:1008400070BD41F0FE4141F4780170BD70B54FF0CC
:10085000FF0C4CF4E06C1CEA11541DBF1CEA13554C
:1008600094EA0C0F95EA0C0F00F0A7F8A4EB05042E
:1008700081EA030E52EA03354FEA013100F0888025
:100880004FEA03334FF0805545EA131343EA1263EE
:100890004FEA022245EA111545EA10654FEA0026A3
:1008A0000EF000419D4208BF964244F1FD0404F55C
:1008B000407402D25B084FEA3202B61A65EB0305B8
:1008C0005B084FEA32024FF480104FF4002CB6EB75
:1008D000020E75EB030E22BFB61A754640EA0C00F5
:1008E0005B084FEA3202B6EB020E75EB030E22BF35
:1008F000B61A754640EA5C005B084FEA3202B6EB76
:10090000020E75EB030E22BFB61A754640EA9C0034
:100910005B084FEA3202B6EB020E75EB030E22BF04
:10092000B61A754640EADC0055EA060E18D04FEAC2
:10093000051545EA16754FEA06164FEAC30343EA62
:1009400052734FEAC2025FEA1C1CC0D111F4801F2F
:100950000BD141EA00014FF000004FF0004CB6E728
:1009600011F4801F04BF01430020B4F1FD0C88BFC7
:10097000BCF5E06F3FF6AFAEB5EB030C04BFB6EBD2
:10098000020C5FEA500C50F1000041EB045170BDC5
:100990000EF0004E4EEA113114EB5C04C2BFD4EBF2
:1009A0000C0541EA045170BD41F480114FF0000E76
:1009B000013C90E645EA060E8DE60CEA135594EAF2
:1009C0000C0F08BF95EA0C0F3FF43BAF94EA0C0FF5
:1009D0000AD150EA01347FF434AF95EA0C0F7FF46A
:1009E00025AF104619462CE795EA0C0F06D152EABE
:1009F00003353FF4FDAE1046194622E750EA4106A2
:100A000018BF52EA43067FF4C5AE50EA41047FF4B2
:100A10000DAF52EA43057FF4EBAE12E74FF0FF3C17
:100A200006E000BF4FF0010C02E000BF4FF0010CE8
:100A30004DF804CD4FEA410C7FEA6C5C4FEA430C61
:100A400018BF7FEA6C5C1BD001B050EA410C0CBFB0
:100A500052EA430C91EA030F02BF90EA020F002012
:100A6000704710F1000F91EA030F58BF994208BF79
:100A700090422CBFD8176FEAE37040F00100704736
:100A80004FEA410C7FEA6C5C02D150EA013C07D18D
:100A90004FEA430C7FEA6C5CD6D152EA033CD3D0D8
:100AA0005DF8040B704700BF8446104662468C46D2
:100AB0001946634600E000BF01B5FFF7B7FF002805
:100AC00048BF10F1000F01BD4DF808EDFFF7F4FF2E
:100AD0000CBF012000205DF808FB00BF4DF808EDB9
:100AE000FFF7EAFF34BF012000205DF808FB00BFDC
:100AF0004DF808EDFFF7E0FF94BF012000205DF8FE
:100B000008FB00BF4DF808EDFFF7CEFF94BF0120B2
:100B100000205DF808FB00BF4DF808EDFFF7C4FFAB
:100B200034BF012000205DF808FB00BF4FEA410CF4
:100B30007FEA6C5C02D150EA013C0AD14FEA430CD7
:100B40007FEA6C5C02D152EA033C02D14FF0000014
:100B500070474FF0010070474FEA4102B2F1E043A5
:100B600024BFB3F5001CDCF1FE5C0DD901F0004C94
:100B70004FEAC0024CEA5070B2F1004F40EB8300E4
:100B800008BF20F00100704711F0804F21D113F110
:100B90003872BCBF01F00040704741F480114FEA49
:100BA0005252C2F11802C2F1200C10FA0CF320FAD2
:100BB00002F018BF40F001004FEAC1234FEAD323EF
:100BC00003FA0CFC40EA0C0023FA02F34FEA430359
:100BD000CCE77FEA625307D150EA01331EBF4FF0E2
:100BE000FE4040F44000704701F0004040F0FE40FD
:100BF00040F40000704700BF0348044B834202D01A
:100C0000034B03B118477047CC000020CC000020F4
:100C1000000000000548064B1B1AD90F01EBA30189
:100C2000491002D0034B03B118477047CC00002095
:100C3000CC0000200000000010B5064C237843B91A
:100C4000FFF7DAFF044B13B10448AFF30080012330
:100C5000237010BDCC00002000000000507B000875
:100C600008B5054B1BB105490548AFF30080BDE849
:100C70000840FFF7CFBF00BF00000000D0000020F9
:100C8000507B000808B5013803281AD8DFE800F0C7
:100C900002080D1300224FF400710A4802F093FD80
:100CA00000220821074802F08EFD00224FF4005177
:100CB000054802F088FD00224FF40041024802F08E
:100CC00082FD08BD00080048000400482DE9F041FD
:100CD0002DED028B0420FFF7D5FF0120FFF7D2FF97
:100CE0000320FFF7CFFF0420FFF7CCFFDFF8908150
:100CF000002488F81440534F3C75534E3475534DBF
:100D00002C7501228021524802F05DFD01224FF432
:100D100000714FF0904002F056FD012208214FF083
:100D2000904002F050FD01224FF48041494802F00A
:100D30004AFD9FED492ADFED491AB7EE001ADFEDB3
:100D4000480AB0EE000A08F1180000F056FDDFED89
:100D5000458A9FED458A9FED452AF0EE681AB0EE70
:100D6000481AF0EE480AB6EE000A08F1500000F00A
:100D700044FDB0EE482AF0EE681AB0EE481AF0EEE4
:100D8000480AB6EE000A07F1180000F036FDB0EE92
:100D9000482AF0EE681AB0EE481AF0EE480AB6EEAD
:100DA000000A07F1500000F028FDB0EE482AF0EEEE
:100DB000681AB0EE481AF0EE480AB6EE000A06F1DC
:100DC000500000F01AFDB0EE482AF0EE681AB0EEBE
:100DD000481AF0EE480AB6EE000A06F1180000F0D4
:100DE0000CFDB0EE482AF0EE681AB0EE481AF0EEAC
:100DF000480AB6EE000A05F1180000F0FEFCB0EE5D
:100E0000482AF0EE681AB0EE481AF0EE480AB6EE3C
:100E1000000A05F1500000F0F0FC0C21144803F02A
:100E2000A9FA2146134803F0A5FA0821124803F055
:100E3000A1FA0C21114803F09DFABDEC028BBDE82C
:100E4000F08100BFF801002070010020E8000020C0
:100E5000000800480004004800389C450000FA43A0
:100E60006F12833A00007A4400000000003C1C46E8
:100E7000800700205006002034070020E8060020EC
:100E80008002002008B5013803281AD8DFE800F0F6
:100E900002080D1301224FF400710A4802F093FC7E
:100EA00001220821074802F08EFC01224FF4005174
:100EB000054802F088FC01224FF40041024802F08C
:100EC00082FC08BD000800480004004808B501384D
:100ED00003280CD8DFE800F002142434012907D0DD
:100EE00000224FF400714FF0904002F06CFC08BDFE
:100EF00001224FF400714FF0904002F064FCF6E7DD
:100F0000012906D0002208214FF0904002F05BFC3E
:100F1000EDE7012208214FF0904002F054FCE6E793
:100F2000012906D000224FF480410C4802F04BFC0E
:100F3000DDE701224FF48041084802F044FCD6E787
:100F4000012905D000228021054802F03CFCCEE7B3
:100F500001228021024802F036FCC8E70004004864
:100F60000008004810B5124C0021204603F0C0FADA
:100F70000421204603F0BCFA0E4C0021204603F069
:100F8000B7FA0421204603F0B3FA0B4C00212046A7
:100F900003F0AEFA0421204603F0AAFA074C002120
:100FA000204603F0A5FA0421204603F0A1FA10BD63
:100FB000CC0700208007002034070020E80600202E
:100FC0000138032817D8DFE800F002070C110B4B9B
:100FD0001B68586A00B27047094B1B68586A00B218
:100FE0007047084B1B68586A00B27047064B1B6875
:100FF000586A00B270470020704700BFCC0700203D
:101000008007002034070020E806002000000000D0
:1010100070B52DED048B8CB005460E46B0EE408ABF
:10102000F6EE008A60EE288AF54CD4ED017A94ED54
:10103000037A67EE877A94ED007AD4ED026A27EEA0
:10104000267A77EEC77A77EEA77ACDED097AD4EDD6
:10105000007A94ED017A67EE877A94ED027AD4ED06
:10106000036A27EE267A77EE877A77EEA77ACDEDB8
:101070000A7AD4ED017A94ED017A67EE877A94EDDD
:10108000027AD4ED026A27EE267A77EE877A77EE37
:10109000A77AB7EE009A79EE677ACDED0B7AD94B45
:1010A000B3F9002007EE902AF8EEE77A67EEA77A08
:1010B000B3F9022007EE102AB8EEC77A27EE077AB6
:1010C00077EE877AB3F9043007EE103AB8EEC77AB4
:1010D00027EE077A77EE877A17EE900AFFF734FA51
:1010E00041EC100B05F032FF53EC102B0020C649E9
:1010F000FFF7ACFBFFF730FD07EE900AC34B18601B
:10110000B5F9003007EE103AB8EEC77A27EE277A25
:101110008DED067AB5F9023007EE103AB8EEC77ACF
:1011200027EE277A8DED077AB5F9043007EE103AED
:10113000B8EEC77A67EE277ACDED087ADDED077A4B
:101140009DED0B7A67EE877A9DED087ADDED0A6AF0
:1011500027EE267A77EEC77ACDED007ADDED087AB4
:101160009DED097A67EE877A9DED067ADDED0B6AD3
:1011700027EE267A77EEC77ACDED017ADDED067A95
:101180009DED0A7A67EE877A9DED077ADDED096AB3
:1011900027EE267A77EEC77ACDED027ADDED006A8A
:1011A000DFED9B7A66EEA76A9A4B93ED007A37EEF5
:1011B000267A83ED007ADDED016A66EEA76A93ED8B
:1011C000017A37EE267A83ED017A9DED027A27EED9
:1011D000277AD3ED027A77EE877AC3ED027AB5F9F2
:1011E000062007EE902AF8EEE77A9FED8B7A67EEFD
:1011F000877A9DED006AF2EE006A26EE266A77EEA7
:10120000867A93ED006A77EE867ACDED037AB5F9AA
:10121000082007EE902AF8EEE77A67EE877A9DEDD0
:10122000016A26EE266A77EE867A93ED016A77EEFA
:10123000867ACDED047AB5F90A2007EE902AF8EE09
:10124000E77A67EE877A9DED027A27EE267A77EEC7
:10125000877A93ED027A77EE877ACDED057A94ED71
:10126000016ADDED037A26EE676AD4ED027A9DED20
:10127000047A67EE877A36EE676AD4ED037A9DEDDD
:10128000057A67EE877A36EE676A26EE286AD4ED2D
:10129000006ADDED037A66EEA76AD4ED037A9DED70
:1012A000047A67EE877A76EEE76AD4ED027A9DEDEE
:1012B000057A67EE877A76EEA76A66EEA86A94EDFD
:1012C000037ADDED037A27EE277AD4ED007ADDED9F
:1012D000045A67EEA57A37EE277AD4ED017ADDED70
:1012E000055A67EEA57A37EE677A27EE287AD4EDAD
:1012F000027ADDED035A67EEE57AD4ED015A9DEDF1
:10130000045A65EE855A77EEA57AD4ED005A9DED24
:10131000055A65EE855A77EEA57A67EEA87AD4ED80
:10132000005A35EE866A84ED006A94ED016A76EE25
:10133000266AC4ED016AD4ED026A36EE877A84ED3E
:10134000027A94ED037A77EE277AC4ED037AD4ED2E
:10135000007A94ED007A67EE877A94ED017AD4ED05
:10136000016A27EE267A77EE877A94ED027AD4ED39
:10137000026A27EE267A77EE877A94ED037AD4ED27
:10138000036A27EE267A77EE877A17EE900AFFF740
:10139000DBF841EC100B05F0D9FD53EC102B0020CD
:1013A0001949FFF753FAFFF7D7FB07EE900A94EDC0
:1013B000007A27EE277A84ED007A94ED017A27EE01
:1013C000277A84ED017A94ED027A27EE277A84ED6C
:1013D000027A94ED037A67EE277AC4ED037AB5F9C1
:1013E0000A3007EE903AF8EEE77A9FED0C7A67EE56
:1013F000877AF4EEC97AF1EE10FA40F388800FE0B4
:1014000000000020240300200000F03F140300200F
:1014100017B7D138080300202E9E8B3AF6FF793D8E
:1014200096ED027A28EE278A38EE088A77EE087A57
:10143000C6ED027A3C4CD4ED007A77EEA77A94EDB3
:10144000027A27EE877AD4ED017A77EEA77AD4ED87
:10145000036A67EEA67A77EE677A17EE900AFFF7CF
:1014600073F841EC100B05F03BFD51EC100B2CA375
:10147000D3E90023FFF7C0F8FFF76EFB7060D4EDEF
:10148000027A77EEA77A94ED037A27EE878AD4ED75
:10149000007A77EEA77A94ED017A67EE877A38EED4
:1014A000278AD4ED017A77EEA77A94ED017A67EE78
:1014B000877AB7EE007A37EE677AD4ED027A77EE64
:1014C000A77AD4ED026A67EEA67A77EE677A17EE0E
:1014D000900AFFF739F841EC190B18EE100AFFF7E4
:1014E00033F8B0EE491AF0EE691A41EC100B05F032
:1014F0002BFD51EC100B0AA3D3E90023FFF77CF876
:10150000FFF72AFB30600CB0BDEC048B70BDBFEE62
:10151000007AF4EEC77AF1EE10FA8BD580E700BFBF
:1015200000000020DCA54C400000002010B586B073
:10153000024600248DF817408DF8171040F6FF730F
:101540000293012301930DF117010091D02104486A
:1015500004F067FB642001F061FA204606B010BD7C
:101560001416002008B5C10001F0F8011B20FFF798
:10157000DDFF08BD08B5C10001F0F8011C20FFF730
:10158000D5FF08BD08B5BB2809D861280CD8292883
:101590000CD813280CD809280CD9052100E001210A
:1015A0001A20FFF7C3FF08BD0221F9E70321F7E77F
:1015B0000421F5E70621F3E710B5B0F57A7F04D8EA
:1015C0000446032803D8042401E04FF47A744FF44E
:1015D0007A7191FBF4F1C9B20139C9B21920FFF750
:1015E000A5FF6008FFF7CEFF10BD000000B587B073
:1015F000024600238DF8173040F6FF730293012353
:1016000001930DF117010091D121054804F0DEFB93
:10161000642001F003FA9DF8170007B05DF804FBA1
:101620001416002010B51E4804F097FA80216B2094
:10163000FFF77CFF00216B20FFF778FF0320FFF707
:1016400091FF0020FFF796FF3220FFF7B5FF002142
:101650003820FFF76BFF00216A20FFF767FF0021AA
:101660002320FFF763FF80213720FFF75FFF7520FE
:10167000FFF7BCFF044601460A4804F027FD682C2A
:1016800001D0012010BD01216B20FFF74FFF002189
:101690006C20FFF74BFF3220FFF78EFF0020F1E7B1
:1016A00014160020D87B000870B588B03A4C40F67C
:1016B000FF7602960625019505AB009301233B2298
:1016C000D121204604F082FB029601950DF11A0308
:1016D000009301234322D121204604F077FB00240C
:1016E0001DE032F814301BB200EE103A650004EB36
:1016F0004402D000294EB8EEC00A304400F05AF837
:101700002B19DA001644D6ED027AFDEEE77A17EED1
:10171000903A1BB2224A22F814300134E4B2052C6C
:1017200037D8630008AA02EB440212F80C2C2133CC
:101730006B4413F80C3C43EA02231A4A32F81410A3
:10174000174A5B1A1BB222F81430022CC9D9E31EC7
:10175000DBB2154901EB8301D1ED007A9FED137ADD
:1017600067EE877A32F814301BB207EE103AB8EE03
:10177000C77ADFED0F6A27EE267A77EE877AC1ED1A
:10178000007AFDEEE77A17EE903A1BB222F8143099
:10179000C3E708B070BD00BF141600201000002081
:1017A000240300203C030020300300209A99593F75
:1017B0009A99193ED0ED007A90ED047A77EE877A07
:1017C000C0ED017A90ED057A37EE877AC7EE876A29
:1017D000C0ED036A90ED027A30EE470A26EE800AE9
:1017E00037EE007A80ED027AB7EE007A37EE667A4D
:1017F00067EE877AC0ED007A704780ED000AC0ED91
:10180000010A80ED021AC0ED031A80ED042A704728
:10181000F0EE407AB0EE600AF4EEE07AF1EE10FA03
:1018200009D9F4EEC17AF1EE10FA02DAB0EE670AE5
:101830007047B0EE410A704710B52DED028B04469B
:1018400080ED050AC0ED060A90ED077A80ED087A72
:1018500070EE600AC0ED070AD0ED008A60EEA88A3B
:10186000C0ED098A90ED0A0AD0ED017A60EEA77A00
:1018700030EE270A80ED0A0A90ED028A70EEC70A60
:1018800028EE208A80ED0B8A90ED031AF1EE410AD2
:10189000FFF7BEFF84ED0A0A78EE808A38EE280A48
:1018A00084ED0C0A94ED041AF1EE410AFFF7B0FF43
:1018B00084ED0C0ABDEC028B10BD000000B587B0B2
:1018C0008DF8170064230293012301930DF1170291
:1018D000009200227821034804F0A3F907B05DF8D4
:1018E00004FB00BFC015002000B587B08DF81700BD
:1018F00064230293012301930DF117020092402209
:101900007821034804F08DF907B05DF804FB00BFAF
:10191000C015002008B5AE20FFF7D0FF2020FFF74C
:10192000CDFF1020FFF7CAFFB020FFF7C7FFC82088
:10193000FFF7C4FF0020FFF7C1FF1020FFF7BEFF35
:101940004020FFF7BBFF8120FFF7B8FFFF20FFF724
:10195000B5FFA120FFF7B2FFA620FFF7AFFFA82039
:10196000FFF7ACFF3F20FFF7A9FFA420FFF7A6FF7A
:10197000D320FFF7A3FF0020FFF7A0FFD520FFF73C
:101980009DFFF020FFF79AFFD920FFF797FF222055
:10199000FFF794FFDA20FFF791FF1220FFF78EFF89
:1019A000DB20FFF78BFF2020FFF788FF8D20FFF75C
:1019B00085FF1420FFF782FFAF20FFF77FFF08BDF0
:1019C00070B50546002609E02846FFF78DFF013473
:1019D000E4B214F0800FF7D00136F6B2072E0CD81F
:1019E000A6F15000C0B2FFF769FF0020FFF766FFC5
:1019F0001020FFF763FF0024EBE770BD08B500205F
:101A0000FFF7DEFF08BD08B54FF47A7003F0CEFA99
:101A1000FAE7000010B596B01B4C0DF13C0CA64641
:101A2000BEE80F00ACE80F009EE807008CE8070056
:101A300000210FA803F087FA144B18600DF1200C59
:101A400004F11C0EBEE80F00ACE80F009EE8070092
:101A50008CE80700002108A803F075FA0C4B186009
:101A60000DF1040E04F1380CBCE80F00AEE80F00D5
:101A70009CE807008EE80700002101A803F063FA44
:101A8000044B186016B010BD687B00085C03002092
:101A9000580300205403002008B5FFF7C3FDFFF7EB
:101AA00061FAFFF713F9FFF7B5FFFFF733FFFFF711
:101AB000A5FF08BD08B5FFF7F7FD9FED030A034931
:101AC0000348FFF7A5FA08BD6F12833A18030020F8
:101AD0002403002008B5FFF7EDFF012003F066FAAC
:101AE000F9E7000010B58021874801F065FE874BBB
:101AF00018604FF40041864801F05EFE854B186087
:101B00000420FFF75DFA844C60600120FFF758FA6B
:101B1000824B58600220FFF753FA814B5860032034
:101B2000FFF74EFA7F4B5860636840F6C412934249
:101B300003DDA3F59C53083B6360784B5B6840F67C
:101B4000C412934204DDA3F59C53083B734A5360CF
:101B5000734B5B6840F6C412934204DDA3F59C53BB
:101B6000083B6F4A536040F6C413984204DDA0F569
:101B70009C5008386B4B58606B4B1A6800235362BB
:101B80006A4A126853626A4A12685362694A126862
:101B90005362614C63684FF47A7101FB03F3664A48
:101BA00082FB03C0DB17C3EBE013C3EB03139B0003
:101BB00007EE903AF8EEE70AC4ED000A574843688A
:101BC00001FB03F382FB03ECDB17C3EBEC13C3EB6A
:101BD00003139B0007EE903AF8EEE77AC0ED007A27
:101BE0004F48436801FB03F382FB03ECDB17C3EBB5
:101BF000EC13C3EB03139B0007EE903AF8EEE77A81
:101C0000C0ED007A4748436801FB03F382FB0312EF
:101C1000DB17C3EBE213C3EB03139B0007EE903A11
:101C2000F8EEE77AC0ED007A444B93ED007A60EE6F
:101C3000870AF7EE007A77EEC77A414B93ED007A88
:101C400067EE877A70EEA70A20461830C4ED000AC6
:101C5000C3ED000A3B4B93ED000AFFF7EDFD84ED69
:101C6000120AFFEE007AB4EEE70AF1EE10FA26D47B
:101C7000F7EE007AB4EEE70AF1EE10FA34DDDFEDAC
:101C8000327A77EEC07AFDEEE77A234C17EE903A7F
:101C9000E3820420FFF7F6F801210420FFF716F98C
:101CA000244B1B68E28A1A64284BD3ED007A9FED1F
:101CB000287A67EE877A234BC3ED007A10BDDFEDFB
:101CC000227A30EE270ABDEEC00A10EE103AE38207
:101CD0000420FFF7D7F800210420FFF7F7F8154B91
:101CE0001B68E28A1A64DFE70B4C41F28733E38218
:101CF0000420FEF7C7FF01210420FFF7E7F80D4B92
:101D00001B68E28A1A64CFE70008004850030020ED
:101D1000000400484C03002080020020F80100204D
:101D200070010020E8000020CC0700208007002080
:101D300034070020E80600201F85EB5158000020E2
:101D4000480300205C00002000389C451803002058
:101D50000000964308B5FFF7C5FE012003F026F901
:101D6000F9E7000008B50268034B9A4200D008BDAD
:101D700000F042FEFBE700BF0044014072B6FEE700
:101D800000B595B03822002106A804F0EFFE00202F
:101D90000190029003900490059001F023FD01232F
:101DA00006934FF48033079302230D9303220E9280
:101DB0000F925522109211931293139306A800F0DC
:101DC0006DFE80B90F230193032302930023039335
:101DD0000493059304210DEB010001F015F920B9DE
:101DE00015B05DF804FBFFF7C9FFFFF7C7FF000060
:101DF00008B500F0F1FDFFF7C3FF00F021F800F097
:101E0000BBF800F03BFB00F095FB00F0EFFB00F0AF
:101E10004BFC00F0A7FC03F0D1FB03F0FFFB00F04C
:101E2000E3F800F009F9FFF737FE044801F034FF4A
:101E300000F08AF803F082F8FEE700BF9C0600205D
:101E4000F0B58BB000240594069407940894099487
:101E50002D4BDA6C42F00402DA64DA6C02F0040210
:101E60000192019ADA6C42F02002DA64DA6C02F034
:101E700020020292029ADA6C42F00102DA64DA6C11
:101E800002F001020392039ADA6C42F00202DA6471
:101E9000DB6C03F002030493049B1C4F224642F2C6
:101EA0008821384601F08FFC22464FF402714FF032
:101EB000904001F088FC164E22464FF460413046B7
:101EC00001F081FC42F288230593012506950794D1
:101ED000089405A9384601F085FB4FF40273059379
:101EE00006950794089405A94FF0904001F07AFBFD
:101EF0004FF46043059306950794089405A930466E
:101F000001F070FB0BB0F0BD00100240000800486B
:101F10000004004808B54FF40051044801F058FC93
:101F20004FF47A7003F042F8F5E700BF000800486C
:101F3000034B0360034B0B6080231360704700BFAB
:101F4000600500206003002010B588B00DF1040C7E
:101F5000074C0FCCACE80F0094E807008CE80700B2
:101F6000002101A802F0EFFF024B186008B010BD7D
:101F7000BC7B0008B405002000B58DB024220021F0
:101F800003A804F0F3FD0023009301930293144887
:101F9000144A026009224260836041F28732C260C3
:101FA000036143618023836103230393012305932A
:101FB000099303A902F08CF858B900230093019308
:101FC00002936946064802F0F9FA28B90DB05DF8A7
:101FD00004FBFFF7D3FEF0E7FFF7D0FEF6E700BF04
:101FE000CC070020002C014000B585B000230193F0
:101FF000029303930E480F4A0260542242608360AA
:102000001822C260836102F003F850B900230193E3
:10201000039301A9064802F0D1FA28B905B05DF88A
:1020200004FBFFF7ABFEF1E7FFF7A8FEF6E700BF02
:102030009C0600200010004008B50948094B0360C9
:102040000023436083604FF6FF72C2600361436107
:10205000836101F0DDFF00B908BDFFF78FFEFBE7EC
:10206000040600200048014000B589B00023039316
:10207000049305930693079302681B4B9A4202D080
:1020800009B05DF804FB03F564431A6E42F4006284
:102090001A661A6E02F400620192019ADA6C42F03A
:1020A0000402DA64DB6C03F004030293029B032353
:1020B00003930223049301220592079303A90B487B
:1020C00001F090FA00220521182001F06DFC182083
:1020D00001F07AFC00220521192001F065FC19208D
:1020E00001F072FCCCE700BF002C01400008004862
:1020F00030B58FB0002309930A930B930C930D9383
:102100000368B3F1804F0FD0694A934235D0694AD2
:1021100093426ED0684A934200F09380674A93429C
:1021200000F0A2800FB030BD03F504339A6D42F089
:1021300001029A659A6D02F001020092009ADA6C2F
:1021400042F00102DA64DB6C03F001030193019BAE
:102150000323099302230A9301230B930D9309A9E7
:102160004FF0904001F03EFA002205211C2001F0C2
:102170001BFC1C2001F028FCD4E7514B9A6D42F067
:1021800002029A659A6D02F002020292029ADA6CD9
:1021900042F00102DA64DA6C02F001020392039A5F
:1021A000DA6C42F00402DA64DB6C03F0040304939B
:1021B000049B1023099302240A9401250B950D9486
:1021C00009A94FF0904001F00DFA402309930A94B9
:1021D0000B9500250C950D9409A93A4801F002FAD7
:1021E0002A4605211D2001F0DFFB1D2001F0ECFB3C
:1021F00098E7334B9A6D42F004029A659A6D02F0AB
:1022000004020592059ADA6C42F00102DA64DB6C92
:1022100003F001030693069B4FF4C0530993022376
:102220000A930A230D9309A94FF0904001F0DAF9BF
:10223000002205211E2001F0B7FB1E2001F0C4FB87
:1022400070E71F4B1A6E42F480321A661B6E03F45D
:1022500080330793079B00220521182001F0A4FB7F
:10226000182001F0B1FB5DE7154B1A6E42F48012A5
:102270001A661B6E03F480130893089B0022052145
:102280004D2001F091FB4D2001F09EFB0022052125
:102290004E2001F089FB4E2001F096FB0022052123
:1022A000502001F081FB502001F08EFB3AE700BF87
:1022B0000004004000080040004001400050014080
:1022C000001002400008004800B583B00368134ABC
:1022D000934205D0124A934215D003B05DF804FB37
:1022E000104B9A6D42F010029A659B6D03F010033B
:1022F0000093009B00220521362001F055FB36207B
:1023000001F062FBE9E7074B1A6E42F480221A667D
:102310001B6E03F480230193019BDEE70010004055
:10232000004801400010024010B58CB00023079314
:10233000089309930A930B930368B3F1804F0DD070
:10234000474A934222D0474A934233D0464A934267
:1023500045D0464A934258D00CB010BD03F5043323
:10236000DA6C42F00102DA64DB6C03F001030193E2
:10237000019B4FF480630793022308930A230B9376
:1023800007A94FF0904001F02DF9E5E7384BDA6CE2
:1023900042F00202DA64DB6C03F002030293029B58
:1023A00001230793022308930B9307A9314801F0F7
:1023B00019F9D1E72E4BDA6C42F00202DA64DB6CD9
:1023C00003F002030393039B4FF40073079302236C
:1023D00008930B9307A9274801F004F9BCE7244BA5
:1023E000DA6C42F00102DA64DB6C03F0010304935F
:1023F000049B042307930223089309230B9307A943
:102400004FF0904001F0EEF8A6E7194BDA6C42F07D
:102410000402DA64DA6C02F004020592059ADA6CBE
:1024200042F00202DA64DB6C03F002030693069BBF
:102430004FF4827307930224089406230B9307A991
:102440000D4801F0CFF80423079308940023099363
:102450000A9303230B9307A9064801F0C3F87BE70F
:1024600000040040000800400040014000500140CE
:1024700000100240000400480008004800B595B074
:10248000242200210BA804F071FB00230893099378
:102490000A9301930293039304930593069307937E
:1024A00023484FF08042026009224260836041F27B
:1024B0008732C26003618023836101F0D9FD002867
:1024C0002AD103230B9300230C9301220D920E9328
:1024D0000F9310931192129313930BA9144801F0C8
:1024E000F7FDE0B9002308930A9308A9104802F009
:1024F00065F8B8B960230193002302930393059311
:102500000C2201A90A4801F089FE70B90848FFF7BA
:102510000BFF15B05DF804FBFFF730FCD1E7FFF7C8
:102520002DFCDFE7FFF72AFCE4E7FFF727FCEDE7E8
:102530008007002000B595B0242200210BA804F0EC
:1025400015FB0023089309930A93019302930393C5
:1025500004930593069307932248234A026043603D
:10256000836041F28732C26003618023836101F09E
:102570007FFD00282AD103230B9300230C93012213
:102580000D920E930F9310931192129313930BA924
:10259000144801F09DFDE0B9002308930A9308A9AF
:1025A000104802F00BF8B8B960230193002302939E
:1025B00003930593082201A90A4801F02FFE70B980
:1025C0000848FFF7B1FE15B05DF804FBFFF7D6FB36
:1025D000D1E7FFF7D3FBDFE7FFF7D0FBE4E7FFF737
:1025E000CDFBEDE7340700200004004000B595B0B6
:1025F000242200210BA804F0B9FA002308930993C0
:102600000A9301930293039304930593069307930C
:102610002348244A0260436083604FF6FF72C26021
:1026200003618023836101F023FD00282CD1032363
:102630000B9300230C9301220D920E930F93109392
:102640001192129313930BA9154801F041FDF0B9B3
:10265000002308930A9308A9114801F0AFFFC8B9F5
:1026600060230193002302930393042305930C2218
:102670000DEB03010A4801F0D1FD70B90848FFF7DE
:1026800053FE15B05DF804FBFFF778FBCFE7FFF7CB
:1026900075FBDDE7FFF772FBE2E7FFF76FFBEDE7A6
:1026A000E80600200008004010B598B000241594FA
:1026B000169417940E940F941094119412941394EA
:1026C00014943422214601A804F050FA2348244BE4
:1026D000036009234360846041F28733C36004616F
:1026E00044618023836101F0C3FC00282AD10023C8
:1026F0001593179315A9194801F060FF28BB6023B3
:102700000E9300220F921092119212921392149231
:102710000EA9124801F082FDD0B900230193029363
:102720000393049305934FF40052069207930D937D
:1027300001A90A4801F098FF68B90848FFF7F4FDBD
:1027400018B010BDFFF71AFBD1E7FFF717FBD6E76C
:10275000FFF714FBE1E7FFF711FBEEE7500600205F
:102760000040014010B598B00024159416941794B9
:102770000E940F9410941194129413941494342280
:10278000214601A804F0F2F93148324B0360A92335
:102790004360846044F61F63C36004614461802326
:1027A000836101F065FC002840D100231593169346
:1027B000179315A9264801F001FF002839D160239D
:1027C0000E9300220F921092119212921392149271
:1027D0000EA91F4801F022FD00282DD104220EA9C8
:1027E0001B4801F01BFD50BB08220EA9184801F040
:1027F00015FD38BB002301930293039304930593C3
:102800004FF4005206920793089309934FF0007219
:102810000A920B930C930D9301A90D4801F024FF2C
:1028200098B90B48FFF780FD18B010BDFFF7A6FA66
:10283000BBE7FFF7A3FAC2E7FFF7A0FACEE7FFF77F
:102840009DFAD1E7FFF79AFAD4E7FFF797FAE8E79E
:10285000B805002000500140FEE7FEE7FEE7FEE776
:10286000FEE7704708B5034801F064FA024801F03A
:1028700061FA08BDCC0700205006002008B50348C7
:1028800001F058FA024801F055FA08BDCC070020C3
:102890001808002008B5024801F04CFA08BD00BF36
:1028A0008007002008B5024801F044FA08BD00BFC7
:1028B0003407002008B5024801F03CFA08BD00BF0B
:1028C000E806002008B5024801F034FA08BD00BF50
:1028D0009C06002008B5024801F02CFA08BD00BF94
:1028E000B805002008B5024801F024FA08BD00BF71
:1028F000B805002008B5024801F01CFA08BD00BF69
:10290000B805002000B583B00E4B1A6E42F00102EC
:102910001A661A6E02F001020092009A9A6D42F055
:1029200080529A659B6D03F080530193019B0022B6
:102930000F216FF0010001F037F800F0D9FF03B06C
:102940005DF804FB0010024030B589B004461D4B11
:102950001A6E42F400321A661B6E03F400330193C0
:10296000019B02A903A800F063FC00F04FFC164A8B
:10297000A2FB00239B0C013B1448154A026040F265
:10298000E732C260436000230361836001F040FBD3
:10299000054610B1284609B030BD0C4801F07CF95D
:1029A00005460028F6D1192001F00EF80F2C01D9A8
:1029B0000125EFE700222146192000F0F5FF054B25
:1029C0001C60E7E70010024083DE1B43180800206C
:1029D000004401406400002010B5032000F0D2FF45
:1029E0000520FFF7B1FF10B10124204610BD0446B9
:1029F000FFF788FFF9E70000034A136803490968F5
:102A00000B441360704700BF640800206000002082
:102A1000014B1868704700BF6408002038B50446B1
:102A2000FFF7F6FF0546B4F1FF3F02D0044B1B68E9
:102A30001C44FFF7EDFF401BA042FAD338BD00BF96
:102A400060000020124BDA6802F00302DB68C3F377
:102A500003130133032A11D00E48B0FBF3F00C4BE3
:102A6000DB68C3F3062303FB00F0094BDB68C3F309
:102A7000416301335B00B0FBF3F070470648B0FBE5
:102A8000F3F0034BDB68C3F3062303FB00F0ECE732
:102A9000001002400024F400001BB700002800F0E2
:102AA0004F8270B582B00446036813F0010F37D02F
:102AB000A44A936803F00C03D26802F003020C2BC3
:102AC00023D0082B23D06368B3F5803F4ED0B3F5F5
:102AD000A02F51D09B4B1A6822F480321A601A68DA
:102AE00022F480221A606368002B52D0FFF790FF17
:102AF0000546944B1B6813F4003F11D1FFF788FF84
:102B0000401B6428F5D9032023E2032AD9D18D4B39
:102B10001B6813F4003F03D06368002B00F012829F
:102B2000236813F0020F5DD0864A936803F00C030C
:102B3000D26802F003020C2B3AD0042B3AD0E3689F
:102B4000002B75D07F4A136843F480731360FFF73E
:102B50005FFF05467B4B1B6813F4806F5FD1FFF767
:102B600057FF401B0228F5D90320F2E1754A13688C
:102B700043F480331360B6E703F18043A3F53C339D
:102B80001A6842F480221A601A6842F480321A608D
:102B9000A9E7FFF73DFF05466A4B1B6813F4003FAA
:102BA000BED0FFF735FF401B6428F5D90320D0E1E4
:102BB000022AC2D1634B1B6813F4806F03D0E36811
:102BC000002B00F0C1815F4A536823F0FE43216966
:102BD00043EA016353605C4B1868FFF7B5FE0028B9
:102BE00040F0B481236813F0080F4CD063699BB3A5
:102BF000544AD2F8943043F00103C2F89430FFF7FE
:102C000007FF05464F4BD3F8943013F0020F3AD12B
:102C1000FFF7FEFE401B0228F4D9032099E1494A40
:102C2000536823F0FE43216943EA01635360D9E707
:102C3000444A136823F480731360FFF7E9FE0546E6
:102C4000404B1B6813F4806FCCD0FFF7E1FE401BB4
:102C50000228F5D903207CE13A4AD2F8943023F0D7
:102C60000103C2F89430FFF7D3FE0546354BD3F885
:102C7000943013F0020F06D0FFF7CAFE401B022863
:102C8000F4D9032065E1236813F0040F00F081807C
:102C90002C4B9B6D13F0805F36D12A4B9A6D42F01E
:102CA00080529A659B6D03F080530193019B01252F
:102CB000264B1B6813F4807F28D0A368012B39D0E2
:102CC000052B45D01F4BD3F8902022F00102C3F80A
:102CD0009020D3F8902022F00402C3F89020A3683B
:102CE000002B43D0FFF794FE0646164BD3F89030E6
:102CF00013F0020F4CD1FFF78BFE801B41F288339B
:102D00009842F2D9032024E10025D1E70F4A136845
:102D100043F480731360FFF77BFE06460B4B1B6882
:102D200013F4807FC9D1FFF773FE801B0228F5D909
:102D300003200EE1034AD2F8903043F00103C2F8B9
:102D40009030CCE70010024064000020007000408A
:102D5000884BD3F8902042F00402C3F89020D3F8B7
:102D6000902042F00102C3F89020B8E7FFF750FE30
:102D70000646804BD3F8903013F0020F08D0FFF7CF
:102D800047FE801B41F288339842F2D90320E0E0ED
:102D9000E5B9236813F0200F35D0A369E3B1754A74
:102DA000D2F8983043F00103C2F89830FFF730FEB4
:102DB0000546704BD3F8983013F0020F23D1FFF77C
:102DC00027FE401B0228F4D90320C2E0694A936D14
:102DD00023F080539365DCE7664AD2F8983023F0FD
:102DE0000103C2F89830FFF713FE0546614BD3F894
:102DF000983013F0020F06D0FFF70AFE401B02289E
:102E0000F4D90320A5E0E369002B00F0A180594A22
:102E1000926802F00C020C2A64D0022B13D0554A9F
:102E2000136823F080731360FFF7F2FD0446514BE3
:102E30001B6813F0007F4ED0FFF7EAFD001B02284D
:102E4000F5D9032085E04B4A136823F080731360A3
:102E5000FFF7DEFD0546474B1B6813F0007F06D0E9
:102E6000FFF7D6FD401B0228F5D9032071E0414A47
:102E7000D36841491940236A606A013843EA001364
:102E8000A06A43EA0023206B4008013843EA40531C
:102E9000606B4008013843EA4063E06A43EAC0637C
:102EA0001943D160136843F080731360D36843F013
:102EB0008073D360FFF7ACFD04462E4B1B6813F004
:102EC000007F06D1FFF7A4FD001B0228F5D90320DF
:102ED0003FE000203DE0274AD168284B0B40D360FB
:102EE000002036E0012B36D0224BDB6803F00301D3
:102EF000226A914231D103F0F002616A0139B2EBEA
:102F0000011F2CD103F4FE42A16AB2EB012F28D19C
:102F100003F07842E16AB2EBC16F24D103F4C0013F
:102F2000226B5208013AB1EB425F1ED103F0C0633D
:102F3000626B5208013AB3EB426F18D1002008E0EF
:102F400001207047012004E0012002E0012000E0A0
:102F5000002002B070BD0120FBE70120F9E701204D
:102F6000F7E70120F5E70120F3E70120F1E7012071
:102F7000EFE700BF001002400C809F01FCFFEEFE57
:102F80001E4B9B6803F00C03042B33D01B4B9B6838
:102F900003F00C03082B2FD0184B9B6803F00C0395
:102FA0000C2B01D000207047144BDA6802F00302AA
:102FB000DB68C3F303130133032A11D01048B0FBBD
:102FC000F3F00E4BDB68C3F3062303FB00F00B4B5F
:102FD000DB68C3F3416301335B00B0FBF3F0704780
:102FE0000848B0FBF3F0054BDB68C3F3062303FB93
:102FF00000F0ECE7024870470248704700100240BA
:103000000024F400001BB700002800F0E680F8B5AB
:103010000C460546744B1B6803F00F038B420BD222
:10302000714A136823F00F030B431360136803F016
:103030000F038B4240F0D3802E6816F001065FD05C
:103040006B68032B2FD0022B4DD0684B1B6813F4F9
:10305000806F00F0C680FFF793FF654B98424DD913
:10306000624A936823F0F00343F080039360802664
:103070005E4A936823F0030369680B439360FFF78C
:10308000C7FC0746594B9B6803F00C036A68B3EB17
:10309000820F35D0FFF7BCFCC01B41F28833984249
:1030A000F0D9032078E0514B1B6813F0007F01D169
:1030B000012071E0FFF7C6FC4D4B98421AD94B4BEB
:1030C0009B6813F0F00F05D02E6816F00206CFD0E3
:1030D000AB688BB9454A936823F0F00343F0800353
:1030E00093608026C4E7414B1B6813F4003FB2D1C4
:1030F000012051E00026BBE70026B9E70026B7E72C
:103100002B6813F0020F48D013F0040F04D0374A95
:10311000936843F4E06393602B6813F0080F06D0C4
:10312000324A936823F47C5343F4E06393602F4A5C
:10313000936823F0F003A9680B4393602A4B1B6844
:1031400003F00F03A34230D82B6813F0040F06D00E
:10315000264A936823F4E063E9680B4393602B6885
:1031600013F0080F07D0214A936823F460532969AC
:1031700043EAC1039360FFF703FF1C4B9B68C3F353
:1031800003131C4AD35C03F01F03D8401A4B18608A
:103190001A4B1868FFF7D8FBF8BD802ECED1134A22
:1031A000936823F0F0039360C8E70F4A136823F095
:1031B0000F0323431360FFF72BFC06460A4B1B68E3
:1031C00003F00F03A342BFD0FFF722FC801B41F2A4
:1031D00088339842F2D90320DEE7012070470120AE
:1031E000DAE70120D8E700BF0020024000100240CB
:1031F00000B4C404247C000868000020640000209F
:10320000014B1868704700BF6800002008B5FFF741
:10321000F7FF054B9B68C3F3C223044AD35C03F05A
:103220001F03D84008BD00BF001002401C7C0008EE
:103230000F2303600B4B9A6802F0030242609A6806
:1032400002F0F00282609A6802F4E062C2609B6859
:10325000DB0803F4E0630361034B1B6803F00F0317
:103260000B6070470010024000200240F0B583B0B0
:103270000446036813F4002F6ED0354B9B6D13F09A
:10328000805F1ED1324B9A6D42F080529A659B6DE1
:1032900003F080530193019B01262E4A136843F4E7
:1032A00080731360FFF7B4FB05462A4B1B6813F4C9
:1032B000807F08D1FFF7ACFB401B0228F5D903251E
:1032C00002E00026E9E7002545BB214BD3F890300A
:1032D00013F4407315D0226D9A4212D01C4AD2F8D2
:1032E000903023F44073D2F8901041F48031C2F84A
:1032F0009010D2F8901021F48031C2F89010C2F8EA
:10330000903013F0010F10D145B9114AD2F8903026
:1033100023F44073216D0B43C2F89030EEB10C4A98
:10332000936D23F08053936517E0FFF771FB074619
:10333000074BD3F8903013F0020FE5D1FFF768FB8D
:10334000C01B41F288339842F2D90325DCE700BF65
:1033500000100240007000400025236813F0010FA8
:1033600008D09F4AD2F8883023F0030361680B43EA
:10337000C2F88830236813F0020F08D0984AD2F8B8
:10338000883023F00C03A1680B43C2F8883023680F
:1033900013F0040F08D0924AD2F8883023F030039B
:1033A000E1680B43C2F88830236813F0080F08D097
:1033B0008B4AD2F8883023F0C00321690B43C2F84E
:1033C0008830236813F0100F08D0854AD2F888306F
:1033D00023F4407361690B43C2F88830236813F00B
:1033E000200F08D07E4AD2F8883023F44063A169C8
:1033F0000B43C2F88830236813F0400F08D0784A96
:10340000D2F8883023F44053E1690B43C2F8883086
:10341000236813F0800F08D0714AD2F8883023F463
:103420004043216A0B43C2F88830236813F4807F3D
:1034300008D06B4AD2F8883023F44033616A0B43DA
:10344000C2F88830236813F4003F08D0644AD2F8E9
:103450009C3023F00303A16A0B43C2F89C3023681D
:1034600013F4007F08D05E4AD2F8883023F440235A
:10347000E16A0B43C2F88830236813F4806F0CD0E4
:10348000574AD2F8883023F44013216B0B43C2F81B
:103490008830236BB3F5801F79D0236813F4006F55
:1034A0000CD04F4AD2F8883023F44003616B0B43B1
:1034B000C2F88830636BB3F5800F6DD0236813F4C6
:1034C000805F0CD0464AD2F8883023F04073A16B5D
:1034D0000B43C2F88830A36BB3F1807F61D02368BF
:1034E00013F4005F0CD03E4AD2F8883023F04063DA
:1034F000E16B0B43C2F88830E36BB3F1006F55D03A
:10350000236813F4804F0CD0354AD2F8883023F06A
:103510004063216C0B43C2F88830236CB3F1006F19
:1035200049D0236813F4004F0CD02D4AD2F88830CC
:1035300023F04053616C0B43C2F88830636CB3F1E5
:10354000805F3DD0236813F4803F0CD0244AD2F82A
:10355000883023F04043A16C0B43C2F88830A36C41
:10356000B3F1804F31D0236813F4802F0CD01C4A64
:10357000D2F89C3023F44013E16C0B43C2F89C302A
:10358000E36CB3F5001F25D0284603B0F0BDD36827
:1035900043F48013D36080E7D36843F48013D3608F
:1035A0008CE7D36843F48013D36098E7D36843F47F
:1035B0008013D360A4E7D36843F48013D360B0E7EB
:1035C000D36843F48033D360BCE7D36843F48033DB
:1035D000D360C8E7D36843F48013D360D4E700BF57
:1035E00000100240F0B583B0002362E085685E0001
:1035F0000324B44025EA0405CC68B4402C4384601D
:10360000456825EA0C054C68C4F300149C402C4323
:1036100044605FE0DD08083550F8254003F0070CF2
:103620004FEA8C0C4FF00F0E0EFA0CFE24EA0E0E31
:103630000C6904FA0CF444EA0E0440F8254060E0FA
:10364000052400E0002404FA0EF42C430CF1020CD3
:10365000554D45F82C40554CA568D44325EA020643
:103660004F6817F4801F01D042EA05064F4DAE6047
:10367000ED6804EA05064F6817F4001F01D042EA1E
:1036800005064A4DEE606D6804EA05064F6817F4BA
:10369000003F01D042EA0506444D6E602D682C4083
:1036A0004E6816F4803F01D042EA05043F4A146098
:1036B00001330A6832FA03F474D04FF0010C0CFAAB
:1036C00003FC1CEA0202F3D04C6804F00304013C42
:1036D000012C8BD94C6804F00304032C0CD0C46873
:1036E0005D004FF0030C0CFA05FC24EA0C0C8C680E
:1036F000AC4044EA0C04C4604C6804F00304022C9F
:1037000088D004684FEA430E4FF0030C0CFA0EFC0D
:1037100024EA0C0C4C6804F0030404FA0EF444EAA6
:103720000C0404604C6814F4403FC1D0204C256E5A
:1037300045F001052566246E04F001040194019C06
:103740004FEA930C0CF10205174C54F8255003F086
:10375000030E4FEA8E0E0F2404FA0EF425EA040538
:10376000B0F1904F3FF46EAF124CA04212D004F56E
:103770008064A04210D004F58064A0420ED004F50D
:103780008064A0420CD004F58064A0423FF458AF9E
:10379000062458E7012456E7022454E7032452E79D
:1037A000042450E703B0F0BD0000014000040140D4
:1037B00000100240000400480369194201D00120B2
:1037C0007047002070470AB181617047816270477D
:1037D000436901EA030221EA030141EA02418161EE
:1037E00070470000002836D13E4B1B6803F4C063CD
:1037F000B3F5806F08D03B4AD2F8803023F4807351
:10380000C2F8803000207047364AD2F8803023F466
:103810008073C2F88030136823F4C06343F40073EC
:103820001360314B1B68322202FB03F32F4AA2FBC9
:1038300003239B0C013300E0013B2A4A526912F436
:10384000806F01D0002BF7D1264B5B6913F4806F9A
:1038500044D100207047B0F5007F08D0214A13689A
:1038600023F4C06343F480631360002070471D4B52
:103870001B6803F4C063B3F5806F08D0194AD2F80F
:10388000803043F48073C2F8803000207047154ABE
:10389000D2F8803043F48073C2F88030136823F488
:1038A000C06343F4007313600F4B1B68322202FBAA
:1038B00003F30E4AA2FB03239B0C013300E0013B00
:1038C000084A526912F4806F01D0002BF7D1054BE2
:1038D0005B6913F4806F03D10020704703207047A9
:1038E00003207047007000406800002083DE1B4307
:1038F000024A936843F4804393607047007000402D
:10390000002807DB00F01F02400901239340024A10
:1039100042F82030704700BF00E100E0002808DBDB
:103920000901C9B200F1604000F5614080F8001360
:10393000704700F00F000901C9B2014B19547047DC
:1039400014ED00E000B500F00700C0F1070CBCF179
:10395000040F28BF4FF0040C031D062B0FD9C31E04
:103960004FF0FF3E0EFA0CF021EA000199400EFAEA
:1039700003FE22EA0E0241EA02005DF804FB002386
:10398000EEE70000074AD36823F4E0631B041B0C36
:10399000000200F4E060034343F0BF6343F40033EC
:1039A000D360704700ED00E010B50446054BD868C1
:1039B000C0F30220FFF7C6FF01462046FFF7AEFF27
:1039C00010BD00BF00ED00E008B5FFF799FF08BD8E
:1039D00030B4026A036A23F0010303624468836916
:1039E00023F4803323F073030D681D4322F0020299
:1039F0008B681343204A904213D002F50062904234
:103A00000FD002F5406290420BD002F580629042E6
:103A100007D002F58062904203D002F50062904226
:103A200005D123F00803CA681A4322F00403124A9E
:103A3000904213D002F5006290420FD002F540622E
:103A400090420BD002F58062904207D002F580626E
:103A5000904203D002F50062904205D124F44074F4
:103A60004A6922438C691443446085614A68426311
:103A7000036230BC704700BF002C014030B4036AC1
:103A8000026A22F4807202624468C26922F48032BF
:103A900022F073020D68154323F400738A6843EA29
:103AA00002231C4A904207D002F50062904203D0E4
:103AB00002F5E052904206D123F40063CA6843EA5B
:103AC000022323F48063134A904213D002F500626C
:103AD00090420FD002F5406290420BD002F5806216
:103AE000904207D002F58062904203D002F5006256
:103AF000904207D124F440524C6942EA04128C6986
:103B000042EA04144460C5614A68C263036230BC7F
:103B1000704700BF002C014030B4036A026A22F4EF
:103B2000805202624468C26922F0807222F4E64246
:103B30000D6842EA052223F400538D6843EA0533F9
:103B40001B4DA84207D005F50065A84203D005F536
:103B5000E055A84206D123F40043CD6843EA05337B
:103B600023F48043124DA84213D005F50065A84206
:103B70000FD005F54065A8420BD005F58065A84239
:103B800007D005F58065A84203D005F50065A84279
:103B900007D124F4404C4C694CEA841C8C694CEAF3
:103BA00084144460C2614A680264036230BC704796
:103BB000002C014030B4036A026A22F480320262AF
:103BC0004468026D22F4803222F070020D681543C1
:103BD00023F400338A6843EA0243114A904213D027
:103BE00002F5006290420FD002F5406290420BD085
:103BF00002F58062904207D002F58062904203D0C5
:103C000002F50062904204D124F480344A6944EA07
:103C10000224446005654A688264036230BC7047D0
:103C2000002C014030B4036A026A22F4801202625E
:103C30004468026D22F0807222F4E0420D6842EA8C
:103C4000052223F400138D6843EA0553114DA84261
:103C500013D005F50065A8420FD005F54065A842D0
:103C60000BD005F58065A84207D005F58065A84210
:103C700003D005F50065A84204D124F480244D69E1
:103C800044EA8524446002654A68C264036230BC29
:103C9000704700BF002C014090F83D30DBB2012B93
:103CA0003AD1022380F83D300268D36843F0010323
:103CB000D36003681B4A934220D0B3F1804F1DD0DC
:103CC000A2F59432934219D002F58062934215D046
:103CD00002F58062934211D002F5943293420DD0E6
:103CE00002F54062934209D002F58052934205D01A
:103CF0001A6842F001021A600020704799680A4A67
:103D00000A40062A0AD0B2F5803F09D01A6842F06C
:103D100001021A60002070470120704700207047A0
:103D200000207047002C01400700010070477047D9
:103D30007047704770B505460368DE681C6914F06B
:103D4000020F10D016F0020F0DD06FF002021A61B0
:103D50000123037703689B6913F0030F7CD0FFF7FF
:103D6000E6FF00232B7714F0040F12D016F0040F97
:103D70000FD02B686FF004021A6102232B772B6897
:103D80009B6913F4407F6DD02846FFF7D0FF0023D6
:103D90002B7714F0080F12D016F0080F0FD02B68F5
:103DA0006FF008021A6104232B772B68DB6913F08C
:103DB000030F5ED02846FFF7BAFF00232B7714F0DD
:103DC000100F12D016F0100F0FD02B686FF01002EA
:103DD0001A6108232B772B68DB6913F4407F4FD0DF
:103DE0002846FFF7A4FF00232B7714F0010F02D021
:103DF00016F0010F4BD114F4025F02D016F0800FC1
:103E00004DD114F4807F02D016F0800F4FD114F002
:103E1000400F02D016F0400F51D114F0200F02D005
:103E200016F0200F53D114F4801F02D016F4801F17
:103E300055D114F4001F02D016F4001F57D114F40A
:103E4000800F02D016F4800F59D114F4000F02D065
:103E500016F4000F5BD170BDFFF768FF2846FFF72F
:103E600067FF7EE72846FFF761FF2846FFF760FF00
:103E70008DE72846FFF75AFF2846FFF759FF9CE7D2
:103E80002846FFF753FF2846FFF752FFABE72B68A2
:103E90006FF001021A612846FDF764FFABE72B685B
:103EA0006FF402521A61284600F033FCA9E72B6830
:103EB0006FF480721A61284600F02CFCA7E72B688B
:103EC0006FF040021A612846FFF733FFA5E72B6821
:103ED0006FF020021A61284600F01AFCA3E72B6855
:103EE0006FF480121A61284600F015FCA1E72B68D8
:103EF0006FF400121A61284600F00EFC9FE72B6851
:103F00006FF480021A61284600F007FC9DE72B68D9
:103F10006FF400021A61284600F000FC9BE70000E5
:103F200003683A4A904216D0B0F1804F13D0A2F500
:103F3000943290420FD002F5806290420BD002F58D
:103F40008062904207D002F59432904203D002F58D
:103F5000E052904203D123F070034A6813432B4A86
:103F6000904222D0B0F1804F1FD0A2F594329042FF
:103F70001BD002F58062904217D002F58062904219
:103F800013D002F5943290420FD002F54062904275
:103F90000BD002F58062904207D002F58062904219
:103FA00003D002F50062904203D123F44073CA6843
:103FB000134323F080034A69134303608B68C36291
:103FC0000B688362114B984213D003F5006398424B
:103FD0000FD003F5406398420BD003F580639842FD
:103FE00007D003F58063984203D003F5006398423D
:103FF00001D10B69036301234361036913F0010FCE
:1040000003D0036923F0010303617047002C0140D2
:1040100060B310B5044690F83D3013B3022384F822
:104020003D30214651F8040BFFF77AFF012384F855
:10403000483084F83E3084F83F3084F8403084F8CB
:10404000413084F8423084F8433084F8443084F8B6
:10405000453084F8463084F8473084F83D300020FD
:1040600010BD80F83C30FEF72FF9D7E701207047EC
:1040700060B310B5044690F83D3013B3022384F8C2
:104080003D30214651F8040BFFF74AFF012384F825
:10409000483084F83E3084F83F3084F8403084F86B
:1040A000413084F8423084F8433084F8443084F856
:1040B000453084F8463084F8473084F83D3000209D
:1040C00010BD80F83C30FEF713F8D7E701207047A9
:1040D000002853D0F8B50D46044690F83D30002B2B
:1040E00047D0022384F83D302268936823F4A0333C
:1040F00023F007039360214651F8040BFFF710FFEC
:1041000021688B688A690E6A2868184322F4407215
:1041100022F00302AB68AF6943EA0723134323F499
:104120007C4323F0FC03EA68EF6942EA07221A4362
:104130002B6A1B032F6943EA0713134326F0AA06D1
:104140006A686D6942EA05123243886021688B61B2
:1041500023681A62012384F8483084F83E3084F8DA
:104160003F3084F8443084F8453084F83D300020F6
:10417000F8BD80F83C30FDF777FFB2E701207047CB
:1041800030B4036A026A22F0100202624468826953
:1041900022F0807222F4E6420D6842EA052223F002
:1041A00020038D6843EA05131B4DA84207D005F58F
:1041B0000065A84203D005F5E055A84206D123F0DA
:1041C0008003CD6843EA051323F04003124DA84253
:1041D00013D005F50065A8420FD005F54065A8424B
:1041E0000BD005F58065A84207D005F58065A8428B
:1041F00003D005F50065A84207D124F4406C4C6952
:104200004CEA840C8C694CEA8404446082614A68FC
:104210008263036230BC7047002C014038B590F8CF
:104220003C30012B00F0958004460D46012380F8B8
:104230003C30142A00F28880DFE802F00B86868684
:104240001F86868634868686488686865D8686862E
:1042500071000068FFF7BCFB2268936943F0080314
:1042600093612268936923F0040393612268936940
:1042700029690B439361002067E00068FFF780FF26
:104280002268936943F4006393612268936923F47D
:104290008063936122689369296943EA01239361EA
:1042A000002052E00068FFF7E9FB2268D36943F081
:1042B0000803D3612268D36923F00403D361226821
:1042C000D36929690B43D36100203EE00068FFF702
:1042D00023FC2268D36943F40063D3612268D36965
:1042E00023F48063D3612268D369296943EA0123F7
:1042F000D361002029E00068FFF75CFC2268136DA1
:1043000043F0080313652268136D23F0040313655B
:104310002268136D29690B431365002015E00068BE
:10432000FFF780FC2268136D43F400631365226875
:10433000136D23F4806313652268136D296943EAC2
:1043400001231365002000E00120002384F83C30A5
:1043500038BD0220FCE701F01F014FF0010C0CFA00
:1043600001FC036A23EA0C030362036A8A401343D5
:104370000362704710B5044610293DD8DFE801F00C
:10438000093C3C3C203C3C3C273C3C3C2E3C3C3CDF
:10439000350090F83E30DBB2013B18BF0123002B03
:1043A00040F09B80102900F28680DFE801F02C8429
:1043B000848474848484788484847C848484800069
:1043C00090F83F30DBB2013B18BF0123E7E790F8DC
:1043D0004030DBB2013B18BF0123E0E790F84130E9
:1043E000DBB2013B18BF0123D9E790F84230DBB2C2
:1043F000013B18BF0123D2E790F84330DBB2013B09
:1044000018BF0123CBE7022384F83E300122206845
:10441000FFF7A1FF2368344A934213D002F50062EC
:1044200093420FD002F5406293420BD002F58062B6
:10443000934207D002F58062934203D002F50062F6
:10444000934203D15A6C42F400425A642368264ACC
:10445000934234D0B3F1804F31D0A2F594329342DD
:104460002DD002F58062934229D002F580629342FA
:1044700025D002F59432934221D002F54062934256
:104480001DD002F58052934219D01A6842F0010201
:104490001A60002022E0022384F83F30B6E70223AE
:1044A00084F84030B2E7022384F84130AEE70223BB
:1044B00084F84230AAE7022384F84330A6E79968DB
:1044C0000A4A0A40062A0AD0B2F5803F09D01A6883
:1044D00042F001021A60002000E0012010BD00201F
:1044E000FCE70020FAE700BF002C014007000100B4
:1044F00038B5044690F83E00C0B294F83F3094F8C6
:104500004420D2B294F845C00D46B1B9012849D132
:10451000012A48D1022384F83E3084F844307DB328
:10452000042D39D0012200212068FFF714FF012259
:1045300004212068FFF70FFF27E0DBB25FFA8CFC55
:10454000042912D0012833D1012B2CD1012A31D1D9
:10455000BCF1010F30D1022384F83E3084F83F30A3
:1045600084F8443084F84530D9E7012B1CD1BCF1E4
:10457000010F1BD1022384F83F3084F84530CEE789
:10458000012200212068FFF7E6FE2268136843F04D
:1045900001031360002006E0012204212068FFF7D8
:1045A000DAFEF2E7012038BD0120FCE71846FAE701
:1045B0000120F8E71846F6E71046F4E790F83C20AB
:1045C000012A4CD030B40346012280F83C2002225C
:1045D00080F83D20006842688468224DA84207D0D8
:1045E00005F50065A84203D005F5E055A84203D1C2
:1045F00022F470024D682A4322F0007222F0700209
:104600000D682A4342601A68164882421AD0B2F1F5
:10461000804F17D0A0F59430824213D000F580600F
:1046200082420FD000F5806082420BD000F59430BA
:10463000824207D000F54060824203D000F58050EE
:10464000824204D124F080048968214391600122D0
:1046500083F83D20002083F83C0030BC70470220E6
:10466000704700BF002C014090F83C30012B4AD02D
:1046700010B40246012380F83C30CB6823F4407329
:104680008868034323F480634868034323F400638A
:104690000868034323F480530869034323F4005359
:1046A0004869034323F48043086B034323F47023D6
:1046B000886943EA004323F08053C86903431068C4
:1046C000124CA04207D004F50064A04203D004F5C8
:1046D000E054A04210D123F470038C6A43EA0453DF
:1046E00023F080730C6A234323F000734C6A234346
:1046F00023F00053C96A0B434364002082F83C0056
:104700005DF8044B70470220704700BF002C014049
:104710007047704770477047704770477047000098
:10472000034AD2F8883043F47003C2F888307047E7
:1047300000ED00E000F1080343604FF0FF328260BB
:10474000C360036100230360704700230361704767
:1047500043684B609A688A60516099600861036899
:1047600001330360704730B40D68B5F1FF3F11D0DD
:1047700000F108031C465B681A68AA42FAD963680C
:104780004B6099608C60616008610368013303606D
:1047900030BC70470469F2E70369416882688A6047
:1047A000416851605A68824206D0002202611A684C
:1047B000013A1A601868704782685A60F5E700008D
:1047C000084B1B681B6823B9074B4FF0FF321A6078
:1047D0007047044B1B68DB68DB685A68024B1A6041
:1047E000704700BFD8080020700800202DE9F0476E
:1047F00007469846089DDDF824900A9C266B02F136
:104800008042013A06EB820626F00706C1B308464D
:104810004FF0000CBCF10F0F09D810F80C2004EB7E
:104820000C0383F8342012B10CF1010CF2E70023E1
:1048300084F84330062D00D90625E56265644FF003
:10484000000AC4F848A0201DFFF77FFF04F11800FC
:10485000FFF77BFF2461C5F10705A5616462C4F819
:104860004CA084F850A042463946304600F008FD7E
:104870002060B9F1000F01D0C9F80040BDE8F08711
:10488000002384F83430D5E738B5002407E004EB82
:10489000840293000E481844FFF74CFF0134062CA5
:1048A000F5D90C4D2846FFF745FF0B4C2046FFF786
:1048B00041FF0A48FFF73EFF0948FFF73BFF094861
:1048C000FFF738FF084B1D60084B1C6038BD00BF68
:1048D00004090020F0080020DC080020C0080020A7
:1048E000AC08002094080020D8080020D40800203C
:1048F00010B5044600F0EEFC214A13680133136042
:10490000204B1B685BB1204B1B686BB91D4B1B68B0
:10491000DA6AE36A9A4207D81A4B1C6004E0194B22
:104920001C601368012B28D0184A136801331360E8
:10493000E06A01238340164A11680B43136000EBC1
:104940008000211D134B03EB8000FFF701FF00F0F7
:10495000E3FC0D4B1B687BB10A4B1B68DA6AE36A08
:104960009A4209D24FF0E0234FF08052C3F8042D51
:10497000BFF34F8FBFF36F8F10BDFFF785FFD3E7F6
:10498000900800209009002084080020740800206E
:10499000880800200409002010B5044690F8513022
:1049A00063B1012B11D0022B0ED04FF0500383F3D3
:1049B0001188BFF36F8FBFF34F8FFEE7006B00F0DE
:1049C000E3FB204600F0E0FB10BD00F0DDFBFBE761
:1049D0000F4B1B68D3B110B500F07CFC0D4BDB68AE
:1049E000DC68201DFFF7D8FE0B4A1368013B1360FB
:1049F000074A1368013B136000F08EFC2046FFF766
:104A0000CBFF034B1B68002BE6D110BD704700BFE6
:104A1000A8080020AC0800209008002008B5FFF787
:104A2000D7FF074B1B68012BF9D94FF0E0234FF05C
:104A30008052C3F8042DBFF34F8FBFF36F8FEEE7A3
:104A40000409002070B504460D461D4B1E681D4B21
:104A500018680430FFF7A0FE48B91A4B1B68DB6AE0
:104A600001229A4018490B6823EA02030B60B4F153
:104A7000FF3F0DD03444134B1B685C60A64210D935
:104A8000124B18680F4B19680431FFF76CFE70BDAC
:104A9000002DEFD00B4B196804310D48FFF758FE7D
:104AA000F5E70C4B1868074B19680431FFF75BFEFC
:104AB000094B1B68A342EAD9074B1C60E7E700BF1C
:104AC0008C0800209009002088080020D4080020CD
:104AD00094080020D80800207008002030B587B066
:104AE0000B9C7CB10C9DB5B154250495049D542DAF
:104AF0001AD04FF0500383F31188BFF36F8FBFF3C9
:104B00004F8FFEE74FF0500383F31188BFF36F8F91
:104B1000BFF34F8FFEE74FF0500383F31188BFF3CD
:104B20006F8FBFF34F8FFEE7049D0C9D2C63022413
:104B300085F8514000240394029505AC01940A9C29
:104B40000094FFF753FE0C98FFF7D2FE059807B0CC
:104B500030BD2DE9F04385B00746884614461E4611
:104B6000900000F08FFA08B38146542000F08AFAD2
:104B70000546A8B1C0F83090002380F85130039367
:104B800002900D9B01930C9B0093334622464146B5
:104B90003846FFF72BFE2846FFF7AAFE012007E064
:104BA000484600F0F1FA4FF0FF3001E04FF0FF30DF
:104BB00005B0BDE8F083000010B588B0002405946E
:104BC000069407AA06A905A8FDF7B2F9059B02936A
:104BD000069B019300942346079A0E490E48FFF75F
:104BE0007DFF0E4B186090B14FF0500383F3118896
:104BF000BFF36F8FBFF34F8F094B4FF0FF321A6037
:104C0000084B01221A60084B1C6000F0FDFB08B045
:104C100010BD00BF147C00081D4A00086C0800206D
:104C200070080020840800208C080020024A1368C5
:104C300001331360704700BF68080020F8B53A4B95
:104C40001B68002B69D1394B1D6801351D60C5B942
:104C5000374B1B681B6843B14FF0500383F3118837
:104C6000BFF36F8FBFF34F8FFEE7314A1168314BAF
:104C7000186810601960304A136801331360FFF739
:104C80009FFD2E4B1B68AB423DD900272C4B1B6868
:104C9000DB6A03EB83039A002A4B9B58012B00D954
:104CA0000127294B1B68002B3CD001273AE0012744
:104CB0001F4B1B681B6843B31D4B1B68DB68DC681C
:104CC00063689D4226D3261D3046FFF765FDA36A23
:104CD0001BB104F11800FFF75FFDE36A01229A405F
:104CE0001A49086802430A6003EB83039A003146BD
:104CF00014481044FFF72CFDE26A114B1B68DB6A75
:104D00009A42D4D2D4E70027D2E70C4B4FF0FF32BF
:104D10001A60BBE7094A1360B8E70D4A136801330C
:104D2000136000273846F8BD680800208C08002072
:104D3000D8080020D408002078080020700800203F
:104D400090090020040900207C0800208808002029
:104D50008008002038B5354B1B6843B94FF050032D
:104D600083F31188BFF36F8FBFF34F8FFEE700F01F
:104D7000B1FA2E4B1A68013A1A601B68002B4FD10A
:104D80002B4B1B680BB900244BE00024294B1B68FC
:104D90001BB3284BDB68DC6804F11800FFF7FCFC50
:104DA000251D2846FFF7F8FCE06A01238340224ACC
:104DB00011680B43136000EB800029461F4B03EB87
:104DC0008000FFF7C5FCE26A1D4B1B68DB6A9A4254
:104DD000DCD31C4B01221A60D8E70CB1FFF7F0FCC2
:104DE000194B1C6884B9174B1C68D4B14FF0E023F1
:104DF0004FF08052C3F8042DBFF34F8FBFF36F8F76
:104E000001240EE0013C07D0FFF718FF0028F9D07D
:104E10000C4B01221A60F5E70B4B00221A60E2E707
:104E2000002400F079FA204638BD00BF6808002051
:104E300090080020C00800208808002004090020F5
:104E4000900900207C0800208008002010B5A8B13F
:104E50000446104B1B6843B14FF0500383F3118895
:104E6000BFF36F8FBFF34F8FFEE7FFF7DFFE002129
:104E70002046FFF7E7FDFFF76DFF48B94FF0E0234D
:104E80004FF08052C3F8042DBFF34F8FBFF36F8FE5
:104E900010BD00BF68080020204B1B681BB1204BD1
:104EA00001221A6070471E4B00221A601D4B1B68BE
:104EB000B3FA83F3DBB2C3F11F0303EB83018A0070
:104EC00019498A5842B94FF0500383F31188BFF350
:104ED0006F8FBFF34F8FFEE7134803EB83018A0008
:104EE000024451684968516003EB830C4FEA8C021D
:104EF00008320244914209D003EB83039A000A4B23
:104F000013445B68DA68094B1A6070474868624668
:104F10009100054A0A445060EEE700BF680800208F
:104F20007C08002088080020040900209009002047
:104F3000842801D0033070470020704708B5FFF780
:104F40003BFE002008BD2DE9F04387B00E464469C2
:104F5000C4B18569B5B14768D0F80080D0F8109029
:104F6000B0F90800FFF7E4FF029501940090334682
:104F70004A4641463846FFF7B1FD0590059807B00F
:104F8000BDE8F083446805680769B0F90800FFF7D9
:104F9000CFFF05AB019300903346BAB229462046B5
:104FA000FFF7D7FD0128E9D00020E8E708B500B9F0
:104FB0000120FFF74BFF002008BD0000124A12F04D
:104FC000070F1ED0D11D21F00701C1F54063134426
:104FD0000A460E480260002141601344083B23F05A
:104FE00007030B48036059601960991A51601360F8
:104FF000084B1960084B1960084B4FF000421A60CB
:1050000070474FF44063E4E7B4090020AC09002086
:10501000A8090020A0090020A4090020940900206C
:10502000164B1A461B688342FBD3516802EB010CF6
:10503000844509D0416800EB010C634509D0036049
:10504000904219D01060704740680144516010468A
:10505000F0E710B40A4C2468A3420BD05B681944F3
:10506000416013681B680360904200D010605DF8D7
:10507000044B70470460F7E7704700BFAC0900209D
:10508000A809002038B50446FFF7D0FD384B1B684F
:10509000B3B1384B1B681C4250D1002C50D004F1E6
:1050A000080214F0070F02D022F007020832002A8B
:1050B00055D0314B1B68934253D330490C6804E000
:1050C000FFF77CFFE5E721461C466368934202D266
:1050D0002368002BF7D1264B1B68A34243D00D68F1
:1050E000083523680B6063689B1A102B10D9A01831
:1050F00010F0070F08D04FF0500383F31188BFF36F
:105100006F8FBFF34F8FFEE743606260FFF788FF4A
:10511000626819490B689B1A0B60194909688B4230
:1051200001D217490B60134B1B68134363600023C4
:105130002360144A13680133136002E0002500E085
:105140000025FFF707FE15F0070F0ED04FF05003B4
:1051500083F31188BFF36F8FBFF34F8FFEE70025F6
:10516000EFE70025EDE70025EBE7284638BD00BF57
:10517000A809002094090020A4090020AC090020FF
:10518000A00900209C090020002834D038B504462E
:10519000A0F1080550F8043C174A1268134208D1E0
:1051A0004FF0500383F31188BFF36F8FBFF34F8F1E
:1051B000FEE750F8081C41B14FF0500383F311880B
:1051C000BFF36F8FBFF34F8FFEE723EA020340F870
:1051D000043CFFF72BFD54F8041C084A13680B44E9
:1051E00013602846FFF71CFF054A1368013313605C
:1051F000FFF7B0FD38BD704794090020A4090020D6
:105200009809002082B0002301930D4B1B68B3F175
:10521000FF3F08D04FF0500383F31188BFF36F8F27
:10522000BFF34F8FFEE74FF0500383F31188BFF3B6
:105230006F8FBFF34F8F019B002BFCD002B07047E4
:105240006C00002008480068006880F308884FF070
:10525000000080F3148862B661B6BFF34F8FBFF3CE
:105260006F8F00DF00BF000008ED00E0DFF80C00EA
:10527000016841F4700101607047000088ED00E0B2
:105280004FF0807340F8043C21F0010140F8081C05
:10529000054B40F80C3C40F8202C6FF0020340F81E
:1052A000243C4438704700BF05520008000000004D
:1052B000074B19680868B0E8F04F80F30988BFF31E
:1052C0006F8F4FF0000080F311887047AFF30080BC
:1052D000900900204FF0500383F31188BFF36F8FC4
:1052E000BFF34F8F0B4A136801331360012B00D0BB
:1052F00070474FF0E023D3F8043D13F0FF0FF7D0D1
:105300004FF0500383F31188BFF36F8FBFF34F8FBC
:10531000FEE700BF6C000020094B1B6843B94FF04B
:10532000500383F31188BFF36F8FBFF34F8FFEE7F6
:10533000013B034A13600BB983F31188704700BF28
:105340006C000020000000000000000000000000D1
:10535000EFF30980BFF36F8F154B1A681EF0100F23
:1053600008BF20ED108A20E9F04F10602DE90900F8
:105370004FF0500080F31188BFF34F8FBFF36F8F52
:10538000FFF78AFD4FF0000080F3118809BC19680F
:105390000868B0E8F04F1EF0100F08BFB0EC108A9C
:1053A00080F30988BFF36F8F704700BFAFF30080B1
:1053B0009009002008B54FF0500383F31188BFF324
:1053C0006F8FBFF34F8FFFF739FC28B14FF0E02309
:1053D0004FF08052C3F8042D002383F3118808BDD9
:1053E0004FF0E022002313619361054B1B680549D0
:1053F000A1FB03139B09013B536107231361704712
:1054000068000020D34D62104FF0E023D3F8002D48
:105410003D4B9A421CD04FF0E023D3F8002D3B4B7C
:105420009A421ED030B583B0394B1A78D2B201926D
:10543000FF221A701B78DBB28DF803309DF8033021
:1054400003F05003334A1370334B07221A601BE0FA
:105450004FF0500383F31188BFF36F8FBFF34F8F6B
:10546000FEE74FF0500383F31188BFF36F8FBFF354
:105470004F8FFEE7284A1368013B13609DF8033005
:105480005B00DBB28DF803309DF8033013F0800F22
:10549000F0D1214B1B68032B08D04FF0500383F34E
:1054A0001188BFF36F8FBFF34F8FFEE71B021A4ABD
:1054B000136003F4E0631360019BDBB2144A1370C2
:1054C0004FF0E024D4F8203D43F47003C4F8203DAD
:1054D000D4F8203D43F07043C4F8203DFFF780FF2F
:1054E00000250E4B1D60FFF7C1FED4F8343F43F09A
:1054F0004043C4F8343FFFF7A5FEFFF7CDFCFFF7AC
:1055000081FE284603B030BD71C20F4170C20F4109
:1055100000E400E0B8150020B41500206C00002065
:1055200010B503460C4A0D490D48006840B10C48BF
:1055300000680344521A934206D8094A136010BD0A
:105540000748084C0460F2E701F0ECFA0C23036012
:105550004FF0FF30F3E700BF00000220000400001E
:10556000BC150020B817002070B50C461646002563
:1055700006E0AFF30080214601F8010B01350C462F
:10558000B542F6DB304670BD70B50C4616460025B8
:1055900004E014F8010BAFF300800135B542F8DBED
:1055A000304670BD4FF0FF3070474FF400534B60F2
:1055B00000207047012070470020704708B515484B
:1055C000154B0360A3F17563A3F57A23A3F6054396
:1055D0004360002383600122C260036143618361F1
:1055E000C361036200F0B9FA50B90021094800F024
:1055F000C5FC40B90021074800F0EEFC30B908BDF9
:10560000FCF7BCFBF1E7FCF7B9FBF3E7FCF7B6FBF3
:10561000F5E700BF141600200054004008B51448F8
:10562000144B0360A3F17563A3F57B23053B436033
:10563000002383600122C260036143618361C3610F
:10564000036200F08AFA50B90021094800F096FC84
:1056500040B90021064800F0BFFC30B908BDFCF796
:105660008DFBF1E7FCF78AFBF3E7FCF787FBF5E737
:10567000C015002000580040F0B5A1B0044600213C
:105680001B911C911D911E911F91542206A801F09F
:105690006DFA2368434A934204D0434A934241D06F
:1056A00021B0F0BD4023069306A8FDF7DFFD0028DA
:1056B00035D13E4CE36C43F00103E364E36C03F04B
:1056C00001030093009BE36C43F00203E364E36C8B
:1056D00003F002030193019B4FF400431B93122735
:1056E0001C9700251D951E9504261F961BA94FF09B
:1056F0009040FDF777FF80231B931C971D951E9507
:105700001F961BA92A48FDF76DFFA36D43F40013F4
:10571000A365A36D03F400130293029BC0E7FCF79B
:105720002DFBC6E78023069306A8FDF79FFD002802
:1057300035D11E4CE36C43F00403E364E36C03F0E7
:1057400004030393039BE36C43F00103E364E36C02
:1057500003F001030493049B10231B9312271C974F
:1057600000251D951E9504261F961BA91148FDF7BF
:1057700039FF4FF480731B931C971D951E951F9640
:105780001BA94FF09040FDF72DFFA36D43F480035C
:10579000A365A36D03F480030593059B80E7FCF7E5
:1057A000EDFAC6E7005400400058004000100240E7
:1057B000000400480008004803689A6912F0020FCC
:1057C00001D000229A6203689A6912F0010F03D196
:1057D0009A6942F001029A61704710B4019CC1F3CA
:1057E000090141EA02411943214321F000410268C5
:1057F0005368640D04F4806444F07F7444F45834B6
:1058000044F47F7444F0030423EA04030B4353601D
:105810005DF8044B70472DE9F041044603689E692A
:1058200016F010067CD00D4690461022DA61002654
:1058300037462368986910F0200F30D17FBBB5F14F
:10584000FF3FF6D0FDF7E4F8A0EB0800A84201D82E
:10585000002DEED121684B6803F4804394F8422078
:10586000D2B2886910F4004F02D00BB9202A0ED1B1
:1058700023689B6913F0200FDBD1FDF7C9F8A0EB7B
:1058800008001928F4D946F020060127D1E74B6813
:1058900043F480434B60FDF7BBF88046E8E70FB95F
:1058A0002022DA6146F0040601252268936913F488
:1058B000807F05D046F001064FF48071D16101254B
:1058C00013F4806F06D046F0080622684FF480611A
:1058D000D161012513F4007F24D046F0020623682D
:1058E0004FF40072DA6101252046FFF765FF226858
:1058F000536823F0FF7323F48B3323F4FF7323F0F7
:1059000001035360636C33436364202384F84130A4
:10591000002384F8423084F840302846BDE8F08106
:105920000025C2E7002DF8D0DEE770B504460D462D
:10593000164623689B6913F0020F22D1324629468E
:105940002046FFF768FFF0B9B5F1FF3FF1D0FDF752
:105950005FF8801BA84201D8002DEAD123689B691B
:1059600013F0020FE5D1636C43F02003636420233E
:1059700084F84130002384F8423084F8403001201C
:1059800000E0002070BD0120FCE72DE9F84305464A
:10599000884617461E46DDF820902B689C6938EA39
:1059A00004040CBF01230023BB4227D14A463146E1
:1059B0002846FFF730FF20BBB6F1FF3FEDD0FDF7E3
:1059C00027F8A0EB0900B04201D8002EE5D12B68E2
:1059D0009B6938EA03030CBF01230023BB42DCD1DF
:1059E0006B6C43F020036B64202385F84130002367
:1059F00085F8423085F84030012000E00020BDE805
:105A0000F8830120FBE700002DE9F04182B0044655
:105A100090461D46089E099F194B00934FF08073D6
:105A2000EAB2FFF7DAFE3A4631462046FFF77DFF3D
:105A3000F8B9012D0ED123685FFA88F29A620097B7
:105A40003346002280212046FFF79FFFA8B902B00D
:105A5000BDE8F08123684FEA18229A623A4631463F
:105A60002046FFF762FF30B923685FFA88F29A6236
:105A7000E5E70120EBE70120E9E70120E7E700BFC8
:105A8000002000802DE9F04182B0044690461D467A
:105A9000089E099F184B00930023EAB2FFF79DFE72
:105AA0003A4631462046FFF740FFF8B9012D0ED1A6
:105AB00023685FFA88F29A620097334600224021F9
:105AC0002046FFF762FFA8B902B0BDE8F081236865
:105AD0004FEA18229A623A4631462046FFF725FFE0
